{
	"data": {
		"bytecode": {
			"linkReferences": {},
			"object": "61036061003a600b82828239805160001a60731461002d57634e487b7160e01b600052600060045260246000fd5b30600052607381538281f3fe73000000000000000000000000000000000000000030146080604052600436106100565760003560e01c80634f6ca3ce1461005b5780638f861ba7146100805780639ce5c4bf14610093578063f2e60202146100a6575b600080fd5b61006e6100693660046102a8565b6100b9565b60405190815260200160405180910390f35b61006e61008e3660046102c1565b61023b565b61006e6100a13660046102c1565b61024e565b61006e6100b43660046102a8565b61025a565b6000806101118310156100ce57506001610235565b61011183101580156100eb57506100e8610111600a6102e3565b83105b156100f85750600a610235565b610105610111600a6102e3565b831015801561011f575061011c61011160646102e3565b83105b1561012c57506064610235565b61013961011160646102e3565b831015801561015457506101516101116103e86102e3565b83105b1561016257506103e8610235565b6101706101116103e86102e3565b831015801561018c57506101886101116127106102e3565b8311155b1561019a5750612710610235565b6101a86101116127106102e3565b83101580156101c557506101c1610111620186a06102e3565b8311155b156101d45750620186a0610235565b60405163347626dd60e21b815260206004820152602b60248201527f556e61626c6520746f2063616c63756c6174652c506c65617365207375626d6960448201526a1d0818481c995c5d595cdd60aa1b606482015260840160405180910390fd5b92915050565b60006102478383610278565b9392505050565b60006102478284610290565b6000806003831161026d57506001610235565b610247836003610290565b60006064610286848461029c565b6102479190610308565b60006102478284610308565b600061024782846102e3565b6000602082840312156102ba57600080fd5b5035919050565b600080604083850312156102d457600080fd5b50508035926020909101359150565b808202811582820484141761023557634e487b7160e01b600052601160045260246000fd5b60008261032557634e487b7160e01b600052601260045260246000fd5b50049056fea2646970667358221220be980dc1ab942d0c08d6571c5a999c37db7ec06624f020bebd85c32f9c67103b64736f6c63430008110033",
			"opcodes": "PUSH2 0x360 PUSH2 0x3A PUSH1 0xB DUP3 DUP3 DUP3 CODECOPY DUP1 MLOAD PUSH1 0x0 BYTE PUSH1 0x73 EQ PUSH2 0x2D JUMPI PUSH4 0x4E487B71 PUSH1 0xE0 SHL PUSH1 0x0 MSTORE PUSH1 0x0 PUSH1 0x4 MSTORE PUSH1 0x24 PUSH1 0x0 REVERT JUMPDEST ADDRESS PUSH1 0x0 MSTORE PUSH1 0x73 DUP2 MSTORE8 DUP3 DUP2 RETURN INVALID PUSH20 0x0 ADDRESS EQ PUSH1 0x80 PUSH1 0x40 MSTORE PUSH1 0x4 CALLDATASIZE LT PUSH2 0x56 JUMPI PUSH1 0x0 CALLDATALOAD PUSH1 0xE0 SHR DUP1 PUSH4 0x4F6CA3CE EQ PUSH2 0x5B JUMPI DUP1 PUSH4 0x8F861BA7 EQ PUSH2 0x80 JUMPI DUP1 PUSH4 0x9CE5C4BF EQ PUSH2 0x93 JUMPI DUP1 PUSH4 0xF2E60202 EQ PUSH2 0xA6 JUMPI JUMPDEST PUSH1 0x0 DUP1 REVERT JUMPDEST PUSH2 0x6E PUSH2 0x69 CALLDATASIZE PUSH1 0x4 PUSH2 0x2A8 JUMP JUMPDEST PUSH2 0xB9 JUMP JUMPDEST PUSH1 0x40 MLOAD SWAP1 DUP2 MSTORE PUSH1 0x20 ADD PUSH1 0x40 MLOAD DUP1 SWAP2 SUB SWAP1 RETURN JUMPDEST PUSH2 0x6E PUSH2 0x8E CALLDATASIZE PUSH1 0x4 PUSH2 0x2C1 JUMP JUMPDEST PUSH2 0x23B JUMP JUMPDEST PUSH2 0x6E PUSH2 0xA1 CALLDATASIZE PUSH1 0x4 PUSH2 0x2C1 JUMP JUMPDEST PUSH2 0x24E JUMP JUMPDEST PUSH2 0x6E PUSH2 0xB4 CALLDATASIZE PUSH1 0x4 PUSH2 0x2A8 JUMP JUMPDEST PUSH2 0x25A JUMP JUMPDEST PUSH1 0x0 DUP1 PUSH2 0x111 DUP4 LT ISZERO PUSH2 0xCE JUMPI POP PUSH1 0x1 PUSH2 0x235 JUMP JUMPDEST PUSH2 0x111 DUP4 LT ISZERO DUP1 ISZERO PUSH2 0xEB JUMPI POP PUSH2 0xE8 PUSH2 0x111 PUSH1 0xA PUSH2 0x2E3 JUMP JUMPDEST DUP4 LT JUMPDEST ISZERO PUSH2 0xF8 JUMPI POP PUSH1 0xA PUSH2 0x235 JUMP JUMPDEST PUSH2 0x105 PUSH2 0x111 PUSH1 0xA PUSH2 0x2E3 JUMP JUMPDEST DUP4 LT ISZERO DUP1 ISZERO PUSH2 0x11F JUMPI POP PUSH2 0x11C PUSH2 0x111 PUSH1 0x64 PUSH2 0x2E3 JUMP JUMPDEST DUP4 LT JUMPDEST ISZERO PUSH2 0x12C JUMPI POP PUSH1 0x64 PUSH2 0x235 JUMP JUMPDEST PUSH2 0x139 PUSH2 0x111 PUSH1 0x64 PUSH2 0x2E3 JUMP JUMPDEST DUP4 LT ISZERO DUP1 ISZERO PUSH2 0x154 JUMPI POP PUSH2 0x151 PUSH2 0x111 PUSH2 0x3E8 PUSH2 0x2E3 JUMP JUMPDEST DUP4 LT JUMPDEST ISZERO PUSH2 0x162 JUMPI POP PUSH2 0x3E8 PUSH2 0x235 JUMP JUMPDEST PUSH2 0x170 PUSH2 0x111 PUSH2 0x3E8 PUSH2 0x2E3 JUMP JUMPDEST DUP4 LT ISZERO DUP1 ISZERO PUSH2 0x18C JUMPI POP PUSH2 0x188 PUSH2 0x111 PUSH2 0x2710 PUSH2 0x2E3 JUMP JUMPDEST DUP4 GT ISZERO JUMPDEST ISZERO PUSH2 0x19A JUMPI POP PUSH2 0x2710 PUSH2 0x235 JUMP JUMPDEST PUSH2 0x1A8 PUSH2 0x111 PUSH2 0x2710 PUSH2 0x2E3 JUMP JUMPDEST DUP4 LT ISZERO DUP1 ISZERO PUSH2 0x1C5 JUMPI POP PUSH2 0x1C1 PUSH2 0x111 PUSH3 0x186A0 PUSH2 0x2E3 JUMP JUMPDEST DUP4 GT ISZERO JUMPDEST ISZERO PUSH2 0x1D4 JUMPI POP PUSH3 0x186A0 PUSH2 0x235 JUMP JUMPDEST PUSH1 0x40 MLOAD PUSH4 0x347626DD PUSH1 0xE2 SHL DUP2 MSTORE PUSH1 0x20 PUSH1 0x4 DUP3 ADD MSTORE PUSH1 0x2B PUSH1 0x24 DUP3 ADD MSTORE PUSH32 0x556E61626C6520746F2063616C63756C6174652C506C65617365207375626D69 PUSH1 0x44 DUP3 ADD MSTORE PUSH11 0x1D0818481C995C5D595CDD PUSH1 0xAA SHL PUSH1 0x64 DUP3 ADD MSTORE PUSH1 0x84 ADD PUSH1 0x40 MLOAD DUP1 SWAP2 SUB SWAP1 REVERT JUMPDEST SWAP3 SWAP2 POP POP JUMP JUMPDEST PUSH1 0x0 PUSH2 0x247 DUP4 DUP4 PUSH2 0x278 JUMP JUMPDEST SWAP4 SWAP3 POP POP POP JUMP JUMPDEST PUSH1 0x0 PUSH2 0x247 DUP3 DUP5 PUSH2 0x290 JUMP JUMPDEST PUSH1 0x0 DUP1 PUSH1 0x3 DUP4 GT PUSH2 0x26D JUMPI POP PUSH1 0x1 PUSH2 0x235 JUMP JUMPDEST PUSH2 0x247 DUP4 PUSH1 0x3 PUSH2 0x290 JUMP JUMPDEST PUSH1 0x0 PUSH1 0x64 PUSH2 0x286 DUP5 DUP5 PUSH2 0x29C JUMP JUMPDEST PUSH2 0x247 SWAP2 SWAP1 PUSH2 0x308 JUMP JUMPDEST PUSH1 0x0 PUSH2 0x247 DUP3 DUP5 PUSH2 0x308 JUMP JUMPDEST PUSH1 0x0 PUSH2 0x247 DUP3 DUP5 PUSH2 0x2E3 JUMP JUMPDEST PUSH1 0x0 PUSH1 0x20 DUP3 DUP5 SUB SLT ISZERO PUSH2 0x2BA JUMPI PUSH1 0x0 DUP1 REVERT JUMPDEST POP CALLDATALOAD SWAP2 SWAP1 POP JUMP JUMPDEST PUSH1 0x0 DUP1 PUSH1 0x40 DUP4 DUP6 SUB SLT ISZERO PUSH2 0x2D4 JUMPI PUSH1 0x0 DUP1 REVERT JUMPDEST POP POP DUP1 CALLDATALOAD SWAP3 PUSH1 0x20 SWAP1 SWAP2 ADD CALLDATALOAD SWAP2 POP JUMP JUMPDEST DUP1 DUP3 MUL DUP2 ISZERO DUP3 DUP3 DIV DUP5 EQ OR PUSH2 0x235 JUMPI PUSH4 0x4E487B71 PUSH1 0xE0 SHL PUSH1 0x0 MSTORE PUSH1 0x11 PUSH1 0x4 MSTORE PUSH1 0x24 PUSH1 0x0 REVERT JUMPDEST PUSH1 0x0 DUP3 PUSH2 0x325 JUMPI PUSH4 0x4E487B71 PUSH1 0xE0 SHL PUSH1 0x0 MSTORE PUSH1 0x12 PUSH1 0x4 MSTORE PUSH1 0x24 PUSH1 0x0 REVERT JUMPDEST POP DIV SWAP1 JUMP INVALID LOG2 PUSH5 0x6970667358 0x22 SLT KECCAK256 0xBE SWAP9 0xD 0xC1 0xAB SWAP5 0x2D 0xC ADDMOD 0xD6 JUMPI SHR GAS SWAP10 SWAP13 CALLDATACOPY 0xDB PUSH31 0xC06624F020BEBD85C32F9C67103B64736F6C63430008110033000000000000 "
		},
		"gasEstimates": {
			"creation": {
				"codeDepositCost": "172800",
				"executionCost": "248",
				"totalCost": "173048"
			},
			"external": {
				"getDeductMoney(uint256,uint256)": "infinite",
				"getMatNumber(uint256)": "infinite",
				"getPunish(uint256,uint256)": "infinite",
				"punishRatio(uint256)": "infinite"
			},
			"internal": {
				"getPercentage(uint256,uint256)": "infinite",
				"getTaskTrans(uint256)": "infinite",
				"getTaskTransEnd(uint256)": "infinite",
				"getTaskTransFirst(uint256)": "infinite",
				"getTaskVf(uint256)": "infinite"
			}
		},
		"methodIdentifiers": {
			"getDeductMoney(uint256,uint256)": "8f861ba7",
			"getMatNumber(uint256)": "f2e60202",
			"getPunish(uint256,uint256)": "9ce5c4bf",
			"punishRatio(uint256)": "4f6ca3ce"
		}
	},
	"abi": [
		{
			"inputs": [
				{
					"internalType": "string",
					"name": "",
					"type": "string"
				}
			],
			"name": "ParameterException",
			"type": "error"
		},
		{
			"inputs": [
				{
					"internalType": "uint256",
					"name": "_bounty",
					"type": "uint256"
				},
				{
					"internalType": "uint256",
					"name": "_deduct",
					"type": "uint256"
				}
			],
			"name": "getDeductMoney",
			"outputs": [
				{
					"internalType": "uint256",
					"name": "",
					"type": "uint256"
				}
			],
			"stateMutability": "pure",
			"type": "function"
		},
		{
			"inputs": [
				{
					"internalType": "uint256",
					"name": "_transNumber",
					"type": "uint256"
				}
			],
			"name": "getMatNumber",
			"outputs": [
				{
					"internalType": "uint256",
					"name": "",
					"type": "uint256"
				}
			],
			"stateMutability": "pure",
			"type": "function"
		},
		{
			"inputs": [
				{
					"internalType": "uint256",
					"name": "_ratio",
					"type": "uint256"
				},
				{
					"internalType": "uint256",
					"name": "_bounty",
					"type": "uint256"
				}
			],
			"name": "getPunish",
			"outputs": [
				{
					"internalType": "uint256",
					"name": "",
					"type": "uint256"
				}
			],
			"stateMutability": "pure",
			"type": "function"
		},
		{
			"inputs": [
				{
					"internalType": "uint256",
					"name": "_bounts",
					"type": "uint256"
				}
			],
			"name": "punishRatio",
			"outputs": [
				{
					"internalType": "uint256",
					"name": "",
					"type": "uint256"
				}
			],
			"stateMutability": "pure",
			"type": "function"
		}
	]
}