{
  "contractName": "RedeemCodeFactory",
  "abi": [
    {
      "inputs": [
        {
          "internalType": "string",
          "name": "name",
          "type": "string"
        },
        {
          "internalType": "string",
          "name": "symbol",
          "type": "string"
        },
        {
          "internalType": "uint256",
          "name": "maxSupply",
          "type": "uint256"
        },
        {
          "internalType": "string",
          "name": "baseUri",
          "type": "string"
        }
      ],
      "stateMutability": "nonpayable",
      "type": "constructor"
    },
    {
      "anonymous": false,
      "inputs": [
        {
          "indexed": true,
          "internalType": "address",
          "name": "owner",
          "type": "address"
        },
        {
          "indexed": true,
          "internalType": "address",
          "name": "approved",
          "type": "address"
        },
        {
          "indexed": true,
          "internalType": "uint256",
          "name": "tokenId",
          "type": "uint256"
        }
      ],
      "name": "Approval",
      "type": "event"
    },
    {
      "anonymous": false,
      "inputs": [
        {
          "indexed": true,
          "internalType": "address",
          "name": "owner",
          "type": "address"
        },
        {
          "indexed": true,
          "internalType": "address",
          "name": "operator",
          "type": "address"
        },
        {
          "indexed": false,
          "internalType": "bool",
          "name": "approved",
          "type": "bool"
        }
      ],
      "name": "ApprovalForAll",
      "type": "event"
    },
    {
      "anonymous": false,
      "inputs": [
        {
          "indexed": true,
          "internalType": "address",
          "name": "previousOwner",
          "type": "address"
        },
        {
          "indexed": true,
          "internalType": "address",
          "name": "newOwner",
          "type": "address"
        }
      ],
      "name": "OwnershipTransferred",
      "type": "event"
    },
    {
      "anonymous": false,
      "inputs": [
        {
          "indexed": true,
          "internalType": "address",
          "name": "from",
          "type": "address"
        },
        {
          "indexed": true,
          "internalType": "address",
          "name": "to",
          "type": "address"
        },
        {
          "indexed": true,
          "internalType": "uint256",
          "name": "tokenId",
          "type": "uint256"
        }
      ],
      "name": "Transfer",
      "type": "event"
    },
    {
      "inputs": [
        {
          "internalType": "address",
          "name": "to",
          "type": "address"
        },
        {
          "internalType": "uint256",
          "name": "tokenId",
          "type": "uint256"
        }
      ],
      "name": "approve",
      "outputs": [],
      "stateMutability": "nonpayable",
      "type": "function"
    },
    {
      "inputs": [
        {
          "internalType": "address",
          "name": "owner",
          "type": "address"
        }
      ],
      "name": "balanceOf",
      "outputs": [
        {
          "internalType": "uint256",
          "name": "",
          "type": "uint256"
        }
      ],
      "stateMutability": "view",
      "type": "function"
    },
    {
      "inputs": [
        {
          "internalType": "uint256",
          "name": "tokenId",
          "type": "uint256"
        }
      ],
      "name": "getApproved",
      "outputs": [
        {
          "internalType": "address",
          "name": "",
          "type": "address"
        }
      ],
      "stateMutability": "view",
      "type": "function"
    },
    {
      "inputs": [
        {
          "internalType": "address",
          "name": "owner",
          "type": "address"
        },
        {
          "internalType": "address",
          "name": "operator",
          "type": "address"
        }
      ],
      "name": "isApprovedForAll",
      "outputs": [
        {
          "internalType": "bool",
          "name": "",
          "type": "bool"
        }
      ],
      "stateMutability": "view",
      "type": "function"
    },
    {
      "inputs": [],
      "name": "name",
      "outputs": [
        {
          "internalType": "string",
          "name": "",
          "type": "string"
        }
      ],
      "stateMutability": "view",
      "type": "function"
    },
    {
      "inputs": [],
      "name": "owner",
      "outputs": [
        {
          "internalType": "address",
          "name": "",
          "type": "address"
        }
      ],
      "stateMutability": "view",
      "type": "function"
    },
    {
      "inputs": [
        {
          "internalType": "uint256",
          "name": "tokenId",
          "type": "uint256"
        }
      ],
      "name": "ownerOf",
      "outputs": [
        {
          "internalType": "address",
          "name": "",
          "type": "address"
        }
      ],
      "stateMutability": "view",
      "type": "function"
    },
    {
      "inputs": [],
      "name": "renounceOwnership",
      "outputs": [],
      "stateMutability": "nonpayable",
      "type": "function"
    },
    {
      "inputs": [
        {
          "internalType": "address",
          "name": "from",
          "type": "address"
        },
        {
          "internalType": "address",
          "name": "to",
          "type": "address"
        },
        {
          "internalType": "uint256",
          "name": "tokenId",
          "type": "uint256"
        }
      ],
      "name": "safeTransferFrom",
      "outputs": [],
      "stateMutability": "nonpayable",
      "type": "function"
    },
    {
      "inputs": [
        {
          "internalType": "address",
          "name": "from",
          "type": "address"
        },
        {
          "internalType": "address",
          "name": "to",
          "type": "address"
        },
        {
          "internalType": "uint256",
          "name": "tokenId",
          "type": "uint256"
        },
        {
          "internalType": "bytes",
          "name": "_data",
          "type": "bytes"
        }
      ],
      "name": "safeTransferFrom",
      "outputs": [],
      "stateMutability": "nonpayable",
      "type": "function"
    },
    {
      "inputs": [
        {
          "internalType": "address",
          "name": "operator",
          "type": "address"
        },
        {
          "internalType": "bool",
          "name": "approved",
          "type": "bool"
        }
      ],
      "name": "setApprovalForAll",
      "outputs": [],
      "stateMutability": "nonpayable",
      "type": "function"
    },
    {
      "inputs": [
        {
          "internalType": "bytes4",
          "name": "interfaceId",
          "type": "bytes4"
        }
      ],
      "name": "supportsInterface",
      "outputs": [
        {
          "internalType": "bool",
          "name": "",
          "type": "bool"
        }
      ],
      "stateMutability": "view",
      "type": "function"
    },
    {
      "inputs": [],
      "name": "symbol",
      "outputs": [
        {
          "internalType": "string",
          "name": "",
          "type": "string"
        }
      ],
      "stateMutability": "view",
      "type": "function"
    },
    {
      "inputs": [
        {
          "internalType": "uint256",
          "name": "tokenId",
          "type": "uint256"
        }
      ],
      "name": "tokenURI",
      "outputs": [
        {
          "internalType": "string",
          "name": "",
          "type": "string"
        }
      ],
      "stateMutability": "view",
      "type": "function"
    },
    {
      "inputs": [
        {
          "internalType": "address",
          "name": "from",
          "type": "address"
        },
        {
          "internalType": "address",
          "name": "to",
          "type": "address"
        },
        {
          "internalType": "uint256",
          "name": "tokenId",
          "type": "uint256"
        }
      ],
      "name": "transferFrom",
      "outputs": [],
      "stateMutability": "nonpayable",
      "type": "function"
    },
    {
      "inputs": [
        {
          "internalType": "address",
          "name": "newOwner",
          "type": "address"
        }
      ],
      "name": "transferOwnership",
      "outputs": [],
      "stateMutability": "nonpayable",
      "type": "function"
    },
    {
      "inputs": [],
      "name": "kill",
      "outputs": [],
      "stateMutability": "nonpayable",
      "type": "function"
    },
    {
      "inputs": [],
      "name": "getOwnerAddress",
      "outputs": [
        {
          "internalType": "address",
          "name": "",
          "type": "address"
        }
      ],
      "stateMutability": "view",
      "type": "function"
    },
    {
      "inputs": [
        {
          "internalType": "bytes32",
          "name": "message",
          "type": "bytes32"
        },
        {
          "internalType": "bytes",
          "name": "sig",
          "type": "bytes"
        }
      ],
      "name": "verifyWhitelist",
      "outputs": [
        {
          "internalType": "bool",
          "name": "",
          "type": "bool"
        }
      ],
      "stateMutability": "view",
      "type": "function"
    },
    {
      "inputs": [
        {
          "internalType": "address",
          "name": "_to",
          "type": "address"
        }
      ],
      "name": "mintTo",
      "outputs": [],
      "stateMutability": "nonpayable",
      "type": "function"
    },
    {
      "inputs": [
        {
          "internalType": "string",
          "name": "newBaseURI",
          "type": "string"
        }
      ],
      "name": "setBaseURI",
      "outputs": [],
      "stateMutability": "nonpayable",
      "type": "function"
    },
    {
      "inputs": [
        {
          "internalType": "uint256",
          "name": "maxSupply",
          "type": "uint256"
        }
      ],
      "name": "setMaxSupply",
      "outputs": [],
      "stateMutability": "nonpayable",
      "type": "function"
    },
    {
      "inputs": [
        {
          "internalType": "bytes32",
          "name": "message",
          "type": "bytes32"
        },
        {
          "internalType": "bytes",
          "name": "sig",
          "type": "bytes"
        }
      ],
      "name": "claim",
      "outputs": [],
      "stateMutability": "nonpayable",
      "type": "function"
    }
  ],
  "bytecode": "0x60806040523480156200001157600080fd5b506040516200217d3803806200217d833981016040819052620000349162000290565b8351849084906200004d9060009060208501906200011d565b508051620000639060019060208401906200011d565b505050620000806200007a620000be60201b60201c565b620000c2565b816009819055506200009e60086200011460201b62000ea11760201c565b8051620000b390600a9060208401906200011d565b505050505062000368565b3390565b600680546001600160a01b038381166001600160a01b0319831681179093556040519116919082907f8be0079c531659141344cd1fd0a4f28419497f9722a3daafe3b4186f6b6457e090600090a35050565b80546001019055565b8280546200012b906200032b565b90600052602060002090601f0160209004810192826200014f57600085556200019a565b82601f106200016a57805160ff19168380011785556200019a565b828001600101855582156200019a579182015b828111156200019a5782518255916020019190600101906200017d565b50620001a8929150620001ac565b5090565b5b80821115620001a85760008155600101620001ad565b634e487b7160e01b600052604160045260246000fd5b600082601f830112620001eb57600080fd5b81516001600160401b0380821115620002085762000208620001c3565b604051601f8301601f19908116603f01168101908282118183101715620002335762000233620001c3565b816040528381526020925086838588010111156200025057600080fd5b600091505b8382101562000274578582018301518183018401529082019062000255565b83821115620002865760008385830101525b9695505050505050565b60008060008060808587031215620002a757600080fd5b84516001600160401b0380821115620002bf57600080fd5b620002cd88838901620001d9565b95506020870151915080821115620002e457600080fd5b620002f288838901620001d9565b94506040870151935060608701519150808211156200031057600080fd5b506200031f87828801620001d9565b91505092959194509250565b600181811c908216806200034057607f821691505b602082108114156200036257634e487b7160e01b600052602260045260246000fd5b50919050565b611e0580620003786000396000f3fe608060405234801561001057600080fd5b506004361061018d5760003560e01c806370a08231116100e3578063b88d4fde1161008c578063eab3608711610066578063eab3608714610348578063f03310241461035b578063f2fde38b1461036e57600080fd5b8063b88d4fde146102e6578063c87b56dd146102f9578063e985e9c51461030c57600080fd5b80638da5cb5b116100bd5780638da5cb5b146102ba57806395d89b41146102cb578063a22cb465146102d357600080fd5b806370a082311461027e578063715018a61461029f578063755edd17146102a757600080fd5b806323b872dd1161014557806355f804b31161011f57806355f804b3146102455780636352211e146102585780636f8b44b01461026b57600080fd5b806323b872dd1461021757806341c0e1b51461022a57806342842e0e1461023257600080fd5b8063081812fc11610176578063081812fc146101cf578063095ea7b3146101fa5780630c4f65bd1461020f57600080fd5b806301ffc9a71461019257806306fdde03146101ba575b600080fd5b6101a56101a0366004611907565b610381565b60405190151581526020015b60405180910390f35b6101c26103d3565b6040516101b1919061197c565b6101e26101dd36600461198f565b610465565b6040516001600160a01b0390911681526020016101b1565b61020d6102083660046119c4565b6104ff565b005b6101e2610615565b61020d6102253660046119ee565b61062e565b61020d6106b5565b61020d6102403660046119ee565b610712565b61020d610253366004611ab6565b61072d565b6101e261026636600461198f565b61079e565b61020d61027936600461198f565b610829565b61029161028c366004611aff565b610888565b6040519081526020016101b1565b61020d610922565b61020d6102b5366004611aff565b610988565b6006546001600160a01b03166101e2565b6101c2610a61565b61020d6102e1366004611b1a565b610a70565b61020d6102f4366004611b76565b610a7b565b6101c261030736600461198f565b610b09565b6101a561031a366004611bde565b6001600160a01b03918216600090815260056020908152604080832093909416825291909152205460ff1690565b6101a5610356366004611c11565b610bf2565b61020d610369366004611c11565b610c86565b61020d61037c366004611aff565b610dbf565b60006001600160e01b031982166380ac58cd60e01b14806103b257506001600160e01b03198216635b5e139f60e01b145b806103cd57506301ffc9a760e01b6001600160e01b03198316145b92915050565b6060600080546103e290611c58565b80601f016020809104026020016040519081016040528092919081815260200182805461040e90611c58565b801561045b5780601f106104305761010080835404028352916020019161045b565b820191906000526020600020905b81548152906001019060200180831161043e57829003601f168201915b5050505050905090565b6000818152600260205260408120546001600160a01b03166104e35760405162461bcd60e51b815260206004820152602c60248201527f4552433732313a20617070726f76656420717565727920666f72206e6f6e657860448201526b34b9ba32b73a103a37b5b2b760a11b60648201526084015b60405180910390fd5b506000908152600460205260409020546001600160a01b031690565b600061050a8261079e565b9050806001600160a01b0316836001600160a01b031614156105785760405162461bcd60e51b815260206004820152602160248201527f4552433732313a20617070726f76616c20746f2063757272656e74206f776e656044820152603960f91b60648201526084016104da565b336001600160a01b03821614806105945750610594813361031a565b6106065760405162461bcd60e51b815260206004820152603860248201527f4552433732313a20617070726f76652063616c6c6572206973206e6f74206f7760448201527f6e6572206e6f7220617070726f76656420666f7220616c6c000000000000000060648201526084016104da565b6106108383610eaa565b505050565b60006106296006546001600160a01b031690565b905090565b6106383382610f18565b6106aa5760405162461bcd60e51b815260206004820152603160248201527f4552433732313a207472616e736665722063616c6c6572206973206e6f74206f60448201527f776e6572206e6f7220617070726f76656400000000000000000000000000000060648201526084016104da565b61061083838361100f565b6006546001600160a01b0316331461070f5760405162461bcd60e51b815260206004820181905260248201527f4f776e61626c653a2063616c6c6572206973206e6f7420746865206f776e657260448201526064016104da565b33ff5b61061083838360405180602001604052806000815250610a7b565b6006546001600160a01b031633146107875760405162461bcd60e51b815260206004820181905260248201527f4f776e61626c653a2063616c6c6572206973206e6f7420746865206f776e657260448201526064016104da565b805161079a90600a906020840190611858565b5050565b6000818152600260205260408120546001600160a01b0316806103cd5760405162461bcd60e51b815260206004820152602960248201527f4552433732313a206f776e657220717565727920666f72206e6f6e657869737460448201527f656e7420746f6b656e000000000000000000000000000000000000000000000060648201526084016104da565b6006546001600160a01b031633146108835760405162461bcd60e51b815260206004820181905260248201527f4f776e61626c653a2063616c6c6572206973206e6f7420746865206f776e657260448201526064016104da565b600955565b60006001600160a01b0382166109065760405162461bcd60e51b815260206004820152602a60248201527f4552433732313a2062616c616e636520717565727920666f7220746865207a6560448201527f726f20616464726573730000000000000000000000000000000000000000000060648201526084016104da565b506001600160a01b031660009081526003602052604090205490565b6006546001600160a01b0316331461097c5760405162461bcd60e51b815260206004820181905260248201527f4f776e61626c653a2063616c6c6572206973206e6f7420746865206f776e657260448201526064016104da565b61098660006111c3565b565b6006546001600160a01b031633146109e25760405162461bcd60e51b815260206004820181905260248201527f4f776e61626c653a2063616c6c6572206973206e6f7420746865206f776e657260448201526064016104da565b60006109ed60085490565b90506009546109fb60085490565b1115610a495760405162461bcd60e51b815260206004820152601d60248201527f4d696e7420636f756e7420657863656564204d41585f535550504c592100000060448201526064016104da565b610a57600880546001019055565b61079a8282611215565b6060600180546103e290611c58565b61079a33838361122f565b610a853383610f18565b610af75760405162461bcd60e51b815260206004820152603160248201527f4552433732313a207472616e736665722063616c6c6572206973206e6f74206f60448201527f776e6572206e6f7220617070726f76656400000000000000000000000000000060648201526084016104da565b610b03848484846112fe565b50505050565b6000818152600260205260409020546060906001600160a01b0316610b965760405162461bcd60e51b815260206004820152602f60248201527f4552433732314d657461646174613a2055524920717565727920666f72206e6f60448201527f6e6578697374656e7420746f6b656e000000000000000000000000000000000060648201526084016104da565b6000610ba061137c565b90506000815111610bc05760405180602001604052806000815250610beb565b80610bca8461138b565b604051602001610bdb929190611c93565b6040516020818303038152906040525b9392505050565b60008281526007602052604081205460ff1615610c515760405162461bcd60e51b815260206004820152601560248201527f696e76616c69642072656464656d20636f64652021000000000000000000000060448201526064016104da565b6000610c5d84846114a1565b9050610c716006546001600160a01b031690565b6001600160a01b039182169116149392505050565b60008281526007602052604090205460ff1615610ce55760405162461bcd60e51b815260206004820152601560248201527f696e76616c69642072656464656d20636f64652021000000000000000000000060448201526064016104da565b6000610cf183836114a1565b9050610d056006546001600160a01b031690565b6001600160a01b0316816001600160a01b031614610d2257600080fd5b6000610d2d60085490565b9050600954610d3b60085490565b1115610d895760405162461bcd60e51b815260206004820152601d60248201527f4d696e7420636f756e7420657863656564204d41585f535550504c592100000060448201526064016104da565b610d97600880546001019055565b610da13382611215565b5050506000908152600760205260409020805460ff19166001179055565b6006546001600160a01b03163314610e195760405162461bcd60e51b815260206004820181905260248201527f4f776e61626c653a2063616c6c6572206973206e6f7420746865206f776e657260448201526064016104da565b6001600160a01b038116610e955760405162461bcd60e51b815260206004820152602660248201527f4f776e61626c653a206e6577206f776e657220697320746865207a65726f206160448201527f646472657373000000000000000000000000000000000000000000000000000060648201526084016104da565b610e9e816111c3565b50565b80546001019055565b600081815260046020526040902080546001600160a01b0319166001600160a01b0384169081179091558190610edf8261079e565b6001600160a01b03167f8c5be1e5ebec7d5bd14f71427d1e84f3dd0314c0f7b2291e5b200ac8c7c3b92560405160405180910390a45050565b6000818152600260205260408120546001600160a01b0316610f915760405162461bcd60e51b815260206004820152602c60248201527f4552433732313a206f70657261746f7220717565727920666f72206e6f6e657860448201526b34b9ba32b73a103a37b5b2b760a11b60648201526084016104da565b6000610f9c8361079e565b9050806001600160a01b0316846001600160a01b03161480610fd75750836001600160a01b0316610fcc84610465565b6001600160a01b0316145b8061100757506001600160a01b0380821660009081526005602090815260408083209388168352929052205460ff165b949350505050565b826001600160a01b03166110228261079e565b6001600160a01b03161461109e5760405162461bcd60e51b815260206004820152602960248201527f4552433732313a207472616e73666572206f6620746f6b656e2074686174206960448201527f73206e6f74206f776e000000000000000000000000000000000000000000000060648201526084016104da565b6001600160a01b0382166111005760405162461bcd60e51b8152602060048201526024808201527f4552433732313a207472616e7366657220746f20746865207a65726f206164646044820152637265737360e01b60648201526084016104da565b61110b600082610eaa565b6001600160a01b0383166000908152600360205260408120805460019290611134908490611cd8565b90915550506001600160a01b0382166000908152600360205260408120805460019290611162908490611cef565b909155505060008181526002602052604080822080546001600160a01b0319166001600160a01b0386811691821790925591518493918716917fddf252ad1be2c89b69c2b068fc378daa952ba7f163c4a11628f55a4df523b3ef91a4505050565b600680546001600160a01b038381166001600160a01b0319831681179093556040519116919082907f8be0079c531659141344cd1fd0a4f28419497f9722a3daafe3b4186f6b6457e090600090a35050565b61079a828260405180602001604052806000815250611520565b816001600160a01b0316836001600160a01b031614156112915760405162461bcd60e51b815260206004820152601960248201527f4552433732313a20617070726f766520746f2063616c6c65720000000000000060448201526064016104da565b6001600160a01b03838116600081815260056020908152604080832094871680845294825291829020805460ff191686151590811790915591519182527f17307eab39ab6107e8899845ad3d59bd9653f200f220920489ca2b5937696c31910160405180910390a3505050565b61130984848461100f565b6113158484848461159e565b610b035760405162461bcd60e51b815260206004820152603260248201527f4552433732313a207472616e7366657220746f206e6f6e20455243373231526560448201527131b2b4bb32b91034b6b83632b6b2b73a32b960711b60648201526084016104da565b6060600a80546103e290611c58565b6060816113af5750506040805180820190915260018152600360fc1b602082015290565b8160005b81156113d957806113c381611d07565b91506113d29050600a83611d38565b91506113b3565b60008167ffffffffffffffff8111156113f4576113f4611a2a565b6040519080825280601f01601f19166020018201604052801561141e576020820181803683370190505b5090505b841561100757611433600183611cd8565b9150611440600a86611d4c565b61144b906030611cef565b60f81b81838151811061146057611460611d60565b60200101907effffffffffffffffffffffffffffffffffffffffffffffffffffffffffffff1916908160001a90535061149a600a86611d38565b9450611422565b6000806000806114b0856116e7565b6040805160008152602081018083528b905260ff8516918101919091526060810183905260808101829052929550909350915060019060a0016020604051602081039080840390855afa15801561150b573d6000803e3d6000fd5b5050604051601f190151979650505050505050565b61152a8383611716565b611537600084848461159e565b6106105760405162461bcd60e51b815260206004820152603260248201527f4552433732313a207472616e7366657220746f206e6f6e20455243373231526560448201527131b2b4bb32b91034b6b83632b6b2b73a32b960711b60648201526084016104da565b60006001600160a01b0384163b156116dc57604051630a85bd0160e11b81526001600160a01b0385169063150b7a02906115e2903390899088908890600401611d76565b6020604051808303816000875af192505050801561161d575060408051601f3d908101601f1916820190925261161a91810190611db2565b60015b6116c2573d80801561164b576040519150601f19603f3d011682016040523d82523d6000602084013e611650565b606091505b5080516116ba5760405162461bcd60e51b815260206004820152603260248201527f4552433732313a207472616e7366657220746f206e6f6e20455243373231526560448201527131b2b4bb32b91034b6b83632b6b2b73a32b960711b60648201526084016104da565b805181602001fd5b6001600160e01b031916630a85bd0160e11b149050611007565b506001949350505050565b600080600083516041146116fa57600080fd5b5050506020810151604082015160609092015160001a92909190565b6001600160a01b03821661176c5760405162461bcd60e51b815260206004820181905260248201527f4552433732313a206d696e7420746f20746865207a65726f206164647265737360448201526064016104da565b6000818152600260205260409020546001600160a01b0316156117d15760405162461bcd60e51b815260206004820152601c60248201527f4552433732313a20746f6b656e20616c7265616479206d696e7465640000000060448201526064016104da565b6001600160a01b03821660009081526003602052604081208054600192906117fa908490611cef565b909155505060008181526002602052604080822080546001600160a01b0319166001600160a01b03861690811790915590518392907fddf252ad1be2c89b69c2b068fc378daa952ba7f163c4a11628f55a4df523b3ef908290a45050565b82805461186490611c58565b90600052602060002090601f01602090048101928261188657600085556118cc565b82601f1061189f57805160ff19168380011785556118cc565b828001600101855582156118cc579182015b828111156118cc5782518255916020019190600101906118b1565b506118d89291506118dc565b5090565b5b808211156118d857600081556001016118dd565b6001600160e01b031981168114610e9e57600080fd5b60006020828403121561191957600080fd5b8135610beb816118f1565b60005b8381101561193f578181015183820152602001611927565b83811115610b035750506000910152565b60008151808452611968816020860160208601611924565b601f01601f19169290920160200192915050565b602081526000610beb6020830184611950565b6000602082840312156119a157600080fd5b5035919050565b80356001600160a01b03811681146119bf57600080fd5b919050565b600080604083850312156119d757600080fd5b6119e0836119a8565b946020939093013593505050565b600080600060608486031215611a0357600080fd5b611a0c846119a8565b9250611a1a602085016119a8565b9150604084013590509250925092565b634e487b7160e01b600052604160045260246000fd5b600067ffffffffffffffff80841115611a5b57611a5b611a2a565b604051601f8501601f19908116603f01168101908282118183101715611a8357611a83611a2a565b81604052809350858152868686011115611a9c57600080fd5b858560208301376000602087830101525050509392505050565b600060208284031215611ac857600080fd5b813567ffffffffffffffff811115611adf57600080fd5b8201601f81018413611af057600080fd5b61100784823560208401611a40565b600060208284031215611b1157600080fd5b610beb826119a8565b60008060408385031215611b2d57600080fd5b611b36836119a8565b915060208301358015158114611b4b57600080fd5b809150509250929050565b600082601f830112611b6757600080fd5b610beb83833560208501611a40565b60008060008060808587031215611b8c57600080fd5b611b95856119a8565b9350611ba3602086016119a8565b925060408501359150606085013567ffffffffffffffff811115611bc657600080fd5b611bd287828801611b56565b91505092959194509250565b60008060408385031215611bf157600080fd5b611bfa836119a8565b9150611c08602084016119a8565b90509250929050565b60008060408385031215611c2457600080fd5b82359150602083013567ffffffffffffffff811115611c4257600080fd5b611c4e85828601611b56565b9150509250929050565b600181811c90821680611c6c57607f821691505b60208210811415611c8d57634e487b7160e01b600052602260045260246000fd5b50919050565b60008351611ca5818460208801611924565b835190830190611cb9818360208801611924565b01949350505050565b634e487b7160e01b600052601160045260246000fd5b600082821015611cea57611cea611cc2565b500390565b60008219821115611d0257611d02611cc2565b500190565b6000600019821415611d1b57611d1b611cc2565b5060010190565b634e487b7160e01b600052601260045260246000fd5b600082611d4757611d47611d22565b500490565b600082611d5b57611d5b611d22565b500690565b634e487b7160e01b600052603260045260246000fd5b60006001600160a01b03808716835280861660208401525083604083015260806060830152611da86080830184611950565b9695505050505050565b600060208284031215611dc457600080fd5b8151610beb816118f156fea264697066735822122094eb754b399ed9308e679891aaa6986662c7409d0e9995d849140b1f0591a04c64736f6c634300080b0033",
  "immutableReferences": {},
  "source": "// SPDX-License-Identifier: Unlicensed\r\n\r\npragma solidity ^0.8.0;\r\n\r\nimport \"@openzeppelin/contracts/token/ERC721/ERC721.sol\";\r\nimport \"@openzeppelin/contracts/token/ERC721/extensions/IERC721Enumerable.sol\";\r\nimport \"@openzeppelin/contracts/utils/Context.sol\";\r\nimport \"@openzeppelin/contracts/utils/Counters.sol\";\r\nimport \"@openzeppelin/contracts/utils/cryptography/ECDSA.sol\";\r\nimport \"@openzeppelin/contracts/access/Ownable.sol\";\r\nimport \"@openzeppelin/contracts/token/ERC721/extensions/ERC721Enumerable.sol\";\r\n\r\n\r\ncontract RedeemCodeFactory is Context, ERC721, Ownable {\r\n\r\n    mapping(bytes32 => bool) whitelist;\r\n    \r\n    using Counters for Counters.Counter;\r\n    Counters.Counter private _currentId;\r\n\r\n    uint256 private _maxSupply;\r\n    string private __baseURI;\r\n\r\n    constructor(string memory name, string memory symbol, uint256 maxSupply, string memory baseUri) \r\n    ERC721(name, symbol) {\r\n        _maxSupply = maxSupply;\r\n        // _currentId is initialized to 1, since starting at 0 leads to higher gas cost for the first minter\r\n        _currentId.increment();\r\n\r\n        __baseURI = baseUri;\r\n    }\r\n\r\n    // Destroy contract and reclaim leftover funds.\r\n    function kill() public onlyOwner{\r\n        // require(msg.sender == owner);\r\n        selfdestruct(payable(msg.sender));\r\n    }\r\n \r\n\r\n    // \r\n    function recoverSigner(bytes32 message, bytes memory sig) internal pure returns (address)\r\n    {\r\n        uint8 v;\r\n        bytes32 r;\r\n        bytes32 s;\r\n        (v, r, s) = splitSignature(sig);\r\n        return ecrecover(message, v, r, s);\r\n    }\r\n\r\n    \r\n     // Signature methods\r\n    function splitSignature(bytes memory sig) internal pure returns (uint8, bytes32, bytes32)\r\n    {\r\n        require(sig.length == 65);\r\n\r\n        bytes32 r;\r\n        bytes32 s;\r\n        uint8 v;\r\n\r\n        assembly {\r\n            // first 32 bytes, after the length prefix\r\n            r := mload(add(sig, 32))\r\n            // second 32 bytes\r\n            s := mload(add(sig, 64))\r\n            // final byte (first byte of the next 32 bytes)\r\n            v := byte(0, mload(add(sig, 96)))\r\n        }\r\n\r\n        return (v, r, s);\r\n    }\r\n\r\n    // Builds a prefixed hash to mimic the behavior of eth_sign.\r\n    function prefixed(bytes32 hash) internal pure returns (bytes32) {\r\n        return keccak256(abi.encodePacked(\"\\x19Ethereum Signed Message:\\n32\", hash));\r\n    }\r\n\r\n    // get owner addr\r\n    function getOwnerAddress() public view returns (address) {\r\n        return owner();\r\n    }\r\n\r\n  \r\n    // verify whitelist \r\n    function verifyWhitelist(bytes32 message, bytes memory sig) public view returns (bool)\r\n    {\r\n        require(whitelist[message] == false, 'invalid reddem code !');\r\n        \r\n        address signer = recoverSigner(message, sig) ;\r\n        return signer == owner();\r\n    }\r\n\r\n\r\n    /**\r\n     * @dev Mints a token to an address with a tokenURI.\r\n     * @param _to address of the future owner of the token\r\n     * TODO: mintTo(address _to, unint256 amount)\r\n     */\r\n    function mintTo(address _to) public onlyOwner {\r\n        // _currentId starts from 1\r\n        uint256 currentTokenId = _currentId.current();\r\n        require(_currentId.current() <= _maxSupply, \"Mint count exceed MAX_SUPPLY!\");\r\n\r\n        _currentId.increment();\r\n        _safeMint(_to, currentTokenId);\r\n    }\r\n\r\n    function _baseURI() internal view override returns (string memory) {\r\n        return __baseURI;\r\n    }\r\n\r\n    function setBaseURI(string memory newBaseURI) public onlyOwner {\r\n        __baseURI = newBaseURI;\r\n    }\r\n\r\n    function setMaxSupply(uint256 maxSupply) public onlyOwner {\r\n        _maxSupply = maxSupply;\r\n    }\r\n\r\n    function claim(bytes32 message, bytes memory sig) public{\r\n        require(whitelist[message] == false, 'invalid reddem code !');\r\n        address signer = recoverSigner(message, sig);\r\n        require(signer == owner());\r\n\r\n        uint256 currentTokenId = _currentId.current();\r\n        require(_currentId.current() <= _maxSupply, \"Mint count exceed MAX_SUPPLY!\");\r\n\r\n        _currentId.increment();\r\n        _safeMint(_msgSender(), currentTokenId);\r\n        \r\n        whitelist[message] = true;\r\n    }\r\n}\r\n",
  "sourcePath": "D:\\metopia\\happydao-core\\contracts\\RedeemCodeFactory.sol",
  "compiler": {
    "name": "solc",
    "version": "0.8.11+commit.d7f03943.Emscripten.clang"
  },
  "schemaVersion": "3.4.4",
  "updatedAt": "2022-01-12T05:54:47.982Z",
  "devdoc": {
    "kind": "dev",
    "methods": {
      "approve(address,uint256)": {
        "details": "See {IERC721-approve}."
      },
      "balanceOf(address)": {
        "details": "See {IERC721-balanceOf}."
      },
      "getApproved(uint256)": {
        "details": "See {IERC721-getApproved}."
      },
      "isApprovedForAll(address,address)": {
        "details": "See {IERC721-isApprovedForAll}."
      },
      "mintTo(address)": {
        "details": "Mints a token to an address with a tokenURI.",
        "params": {
          "_to": "address of the future owner of the token TODO: mintTo(address _to, unint256 amount)"
        }
      },
      "name()": {
        "details": "See {IERC721Metadata-name}."
      },
      "owner()": {
        "details": "Returns the address of the current owner."
      },
      "ownerOf(uint256)": {
        "details": "See {IERC721-ownerOf}."
      },
      "renounceOwnership()": {
        "details": "Leaves the contract without owner. It will not be possible to call `onlyOwner` functions anymore. Can only be called by the current owner. NOTE: Renouncing ownership will leave the contract without an owner, thereby removing any functionality that is only available to the owner."
      },
      "safeTransferFrom(address,address,uint256)": {
        "details": "See {IERC721-safeTransferFrom}."
      },
      "safeTransferFrom(address,address,uint256,bytes)": {
        "details": "See {IERC721-safeTransferFrom}."
      },
      "setApprovalForAll(address,bool)": {
        "details": "See {IERC721-setApprovalForAll}."
      },
      "supportsInterface(bytes4)": {
        "details": "See {IERC165-supportsInterface}."
      },
      "symbol()": {
        "details": "See {IERC721Metadata-symbol}."
      },
      "tokenURI(uint256)": {
        "details": "See {IERC721Metadata-tokenURI}."
      },
      "transferFrom(address,address,uint256)": {
        "details": "See {IERC721-transferFrom}."
      },
      "transferOwnership(address)": {
        "details": "Transfers ownership of the contract to a new account (`newOwner`). Can only be called by the current owner."
      }
    },
    "version": 1
  },
  "userdoc": {
    "kind": "user",
    "methods": {},
    "version": 1
  }
}