{
	"data": {
		"bytecode": {
			"linkReferences": {},
			"object": "6103e361003a600b82828239805160001a60731461002d57634e487b7160e01b600052600060045260246000fd5b30600052607381538281f3fe73000000000000000000000000000000000000000030146080604052600436106100565760003560e01c80634f6ca3ce1461005b5780638f861ba7146100805780639ce5c4bf14610093578063f2e60202146100a6575b600080fd5b61006e6100693660046102d3565b6100b9565b60405190815260200160405180910390f35b61006e61008e3660046102ec565b610266565b61006e6100a13660046102ec565b610279565b61006e6100b43660046102d3565b610285565b6000806101118310156100ce57506001610260565b61011183101580156100eb57506100e8610111600a61030e565b83105b156100f85750600a610260565b610105610111600a61030e565b831015801561011f575061011c610111606461030e565b83105b1561012c57506064610260565b610139610111606461030e565b831015801561015457506101516101116103e861030e565b83105b1561016257506103e8610260565b6101706101116103e861030e565b831015801561018c575061018861011161271061030e565b8311155b1561019a5750612710610260565b6101a861011161271061030e565b83101580156101c557506101c1610111620186a061030e565b8311155b156101d45750620186a0610260565b6040517fd1d89b7400000000000000000000000000000000000000000000000000000000815260206004820152602b60248201527f556e61626c6520746f2063616c63756c6174652c506c65617365207375626d6960448201527f7420612072657175657374000000000000000000000000000000000000000000606482015260840160405180910390fd5b92915050565b600061027283836102a3565b9392505050565b600061027282846102bb565b6000806003831161029857506001610260565b6102728360036102bb565b600060646102b184846102c7565b6102729190610372565b60006102728284610372565b6000610272828461030e565b6000602082840312156102e557600080fd5b5035919050565b600080604083850312156102ff57600080fd5b50508035926020909101359150565b6000817fffffffffffffffffffffffffffffffffffffffffffffffffffffffffffffffff048311821515161561036d577f4e487b7100000000000000000000000000000000000000000000000000000000600052601160045260246000fd5b500290565b6000826103a8577f4e487b7100000000000000000000000000000000000000000000000000000000600052601260045260246000fd5b50049056fea26469706673582212200c1f1a7efe07c4b0698178ba294dca2101ce6d646ef50e4bb02126283d58b13764736f6c63430008100033",
			"opcodes": "PUSH2 0x3E3 PUSH2 0x3A PUSH1 0xB DUP3 DUP3 DUP3 CODECOPY DUP1 MLOAD PUSH1 0x0 BYTE PUSH1 0x73 EQ PUSH2 0x2D JUMPI PUSH4 0x4E487B71 PUSH1 0xE0 SHL PUSH1 0x0 MSTORE PUSH1 0x0 PUSH1 0x4 MSTORE PUSH1 0x24 PUSH1 0x0 REVERT JUMPDEST ADDRESS PUSH1 0x0 MSTORE PUSH1 0x73 DUP2 MSTORE8 DUP3 DUP2 RETURN INVALID PUSH20 0x0 ADDRESS EQ PUSH1 0x80 PUSH1 0x40 MSTORE PUSH1 0x4 CALLDATASIZE LT PUSH2 0x56 JUMPI PUSH1 0x0 CALLDATALOAD PUSH1 0xE0 SHR DUP1 PUSH4 0x4F6CA3CE EQ PUSH2 0x5B JUMPI DUP1 PUSH4 0x8F861BA7 EQ PUSH2 0x80 JUMPI DUP1 PUSH4 0x9CE5C4BF EQ PUSH2 0x93 JUMPI DUP1 PUSH4 0xF2E60202 EQ PUSH2 0xA6 JUMPI JUMPDEST PUSH1 0x0 DUP1 REVERT JUMPDEST PUSH2 0x6E PUSH2 0x69 CALLDATASIZE PUSH1 0x4 PUSH2 0x2D3 JUMP JUMPDEST PUSH2 0xB9 JUMP JUMPDEST PUSH1 0x40 MLOAD SWAP1 DUP2 MSTORE PUSH1 0x20 ADD PUSH1 0x40 MLOAD DUP1 SWAP2 SUB SWAP1 RETURN JUMPDEST PUSH2 0x6E PUSH2 0x8E CALLDATASIZE PUSH1 0x4 PUSH2 0x2EC JUMP JUMPDEST PUSH2 0x266 JUMP JUMPDEST PUSH2 0x6E PUSH2 0xA1 CALLDATASIZE PUSH1 0x4 PUSH2 0x2EC JUMP JUMPDEST PUSH2 0x279 JUMP JUMPDEST PUSH2 0x6E PUSH2 0xB4 CALLDATASIZE PUSH1 0x4 PUSH2 0x2D3 JUMP JUMPDEST PUSH2 0x285 JUMP JUMPDEST PUSH1 0x0 DUP1 PUSH2 0x111 DUP4 LT ISZERO PUSH2 0xCE JUMPI POP PUSH1 0x1 PUSH2 0x260 JUMP JUMPDEST PUSH2 0x111 DUP4 LT ISZERO DUP1 ISZERO PUSH2 0xEB JUMPI POP PUSH2 0xE8 PUSH2 0x111 PUSH1 0xA PUSH2 0x30E JUMP JUMPDEST DUP4 LT JUMPDEST ISZERO PUSH2 0xF8 JUMPI POP PUSH1 0xA PUSH2 0x260 JUMP JUMPDEST PUSH2 0x105 PUSH2 0x111 PUSH1 0xA PUSH2 0x30E JUMP JUMPDEST DUP4 LT ISZERO DUP1 ISZERO PUSH2 0x11F JUMPI POP PUSH2 0x11C PUSH2 0x111 PUSH1 0x64 PUSH2 0x30E JUMP JUMPDEST DUP4 LT JUMPDEST ISZERO PUSH2 0x12C JUMPI POP PUSH1 0x64 PUSH2 0x260 JUMP JUMPDEST PUSH2 0x139 PUSH2 0x111 PUSH1 0x64 PUSH2 0x30E JUMP JUMPDEST DUP4 LT ISZERO DUP1 ISZERO PUSH2 0x154 JUMPI POP PUSH2 0x151 PUSH2 0x111 PUSH2 0x3E8 PUSH2 0x30E JUMP JUMPDEST DUP4 LT JUMPDEST ISZERO PUSH2 0x162 JUMPI POP PUSH2 0x3E8 PUSH2 0x260 JUMP JUMPDEST PUSH2 0x170 PUSH2 0x111 PUSH2 0x3E8 PUSH2 0x30E JUMP JUMPDEST DUP4 LT ISZERO DUP1 ISZERO PUSH2 0x18C JUMPI POP PUSH2 0x188 PUSH2 0x111 PUSH2 0x2710 PUSH2 0x30E JUMP JUMPDEST DUP4 GT ISZERO JUMPDEST ISZERO PUSH2 0x19A JUMPI POP PUSH2 0x2710 PUSH2 0x260 JUMP JUMPDEST PUSH2 0x1A8 PUSH2 0x111 PUSH2 0x2710 PUSH2 0x30E JUMP JUMPDEST DUP4 LT ISZERO DUP1 ISZERO PUSH2 0x1C5 JUMPI POP PUSH2 0x1C1 PUSH2 0x111 PUSH3 0x186A0 PUSH2 0x30E JUMP JUMPDEST DUP4 GT ISZERO JUMPDEST ISZERO PUSH2 0x1D4 JUMPI POP PUSH3 0x186A0 PUSH2 0x260 JUMP JUMPDEST PUSH1 0x40 MLOAD PUSH32 0xD1D89B7400000000000000000000000000000000000000000000000000000000 DUP2 MSTORE PUSH1 0x20 PUSH1 0x4 DUP3 ADD MSTORE PUSH1 0x2B PUSH1 0x24 DUP3 ADD MSTORE PUSH32 0x556E61626C6520746F2063616C63756C6174652C506C65617365207375626D69 PUSH1 0x44 DUP3 ADD MSTORE PUSH32 0x7420612072657175657374000000000000000000000000000000000000000000 PUSH1 0x64 DUP3 ADD MSTORE PUSH1 0x84 ADD PUSH1 0x40 MLOAD DUP1 SWAP2 SUB SWAP1 REVERT JUMPDEST SWAP3 SWAP2 POP POP JUMP JUMPDEST PUSH1 0x0 PUSH2 0x272 DUP4 DUP4 PUSH2 0x2A3 JUMP JUMPDEST SWAP4 SWAP3 POP POP POP JUMP JUMPDEST PUSH1 0x0 PUSH2 0x272 DUP3 DUP5 PUSH2 0x2BB JUMP JUMPDEST PUSH1 0x0 DUP1 PUSH1 0x3 DUP4 GT PUSH2 0x298 JUMPI POP PUSH1 0x1 PUSH2 0x260 JUMP JUMPDEST PUSH2 0x272 DUP4 PUSH1 0x3 PUSH2 0x2BB JUMP JUMPDEST PUSH1 0x0 PUSH1 0x64 PUSH2 0x2B1 DUP5 DUP5 PUSH2 0x2C7 JUMP JUMPDEST PUSH2 0x272 SWAP2 SWAP1 PUSH2 0x372 JUMP JUMPDEST PUSH1 0x0 PUSH2 0x272 DUP3 DUP5 PUSH2 0x372 JUMP JUMPDEST PUSH1 0x0 PUSH2 0x272 DUP3 DUP5 PUSH2 0x30E JUMP JUMPDEST PUSH1 0x0 PUSH1 0x20 DUP3 DUP5 SUB SLT ISZERO PUSH2 0x2E5 JUMPI PUSH1 0x0 DUP1 REVERT JUMPDEST POP CALLDATALOAD SWAP2 SWAP1 POP JUMP JUMPDEST PUSH1 0x0 DUP1 PUSH1 0x40 DUP4 DUP6 SUB SLT ISZERO PUSH2 0x2FF JUMPI PUSH1 0x0 DUP1 REVERT JUMPDEST POP POP DUP1 CALLDATALOAD SWAP3 PUSH1 0x20 SWAP1 SWAP2 ADD CALLDATALOAD SWAP2 POP JUMP JUMPDEST PUSH1 0x0 DUP2 PUSH32 0xFFFFFFFFFFFFFFFFFFFFFFFFFFFFFFFFFFFFFFFFFFFFFFFFFFFFFFFFFFFFFFFF DIV DUP4 GT DUP3 ISZERO ISZERO AND ISZERO PUSH2 0x36D JUMPI PUSH32 0x4E487B7100000000000000000000000000000000000000000000000000000000 PUSH1 0x0 MSTORE PUSH1 0x11 PUSH1 0x4 MSTORE PUSH1 0x24 PUSH1 0x0 REVERT JUMPDEST POP MUL SWAP1 JUMP JUMPDEST PUSH1 0x0 DUP3 PUSH2 0x3A8 JUMPI PUSH32 0x4E487B7100000000000000000000000000000000000000000000000000000000 PUSH1 0x0 MSTORE PUSH1 0x12 PUSH1 0x4 MSTORE PUSH1 0x24 PUSH1 0x0 REVERT JUMPDEST POP DIV SWAP1 JUMP INVALID LOG2 PUSH5 0x6970667358 0x22 SLT KECCAK256 0xC 0x1F BYTE PUSH31 0xFE07C4B0698178BA294DCA2101CE6D646EF50E4BB02126283D58B13764736F PUSH13 0x63430008100033000000000000 "
		},
		"gasEstimates": {
			"creation": {
				"codeDepositCost": "199000",
				"executionCost": "276",
				"totalCost": "199276"
			},
			"external": {
				"getDeductMoney(uint256,uint256)": "infinite",
				"getMatNumber(uint256)": "infinite",
				"getPunish(uint256,uint256)": "infinite",
				"punishRatio(uint256)": "infinite"
			},
			"internal": {
				"getPercentage(uint256,uint256)": "infinite",
				"getTaskTrans(uint256)": "infinite",
				"getTaskTransEnd(uint256)": "infinite",
				"getTaskTransFirst(uint256)": "infinite",
				"getTaskVf(uint256)": "infinite"
			}
		},
		"methodIdentifiers": {
			"getDeductMoney(uint256,uint256)": "8f861ba7",
			"getMatNumber(uint256)": "f2e60202",
			"getPunish(uint256,uint256)": "9ce5c4bf",
			"punishRatio(uint256)": "4f6ca3ce"
		}
	},
	"abi": [
		{
			"inputs": [
				{
					"internalType": "string",
					"name": "",
					"type": "string"
				}
			],
			"name": "ParameterException",
			"type": "error"
		},
		{
			"inputs": [
				{
					"internalType": "uint256",
					"name": "_bounty",
					"type": "uint256"
				},
				{
					"internalType": "uint256",
					"name": "_deduct",
					"type": "uint256"
				}
			],
			"name": "getDeductMoney",
			"outputs": [
				{
					"internalType": "uint256",
					"name": "",
					"type": "uint256"
				}
			],
			"stateMutability": "pure",
			"type": "function"
		},
		{
			"inputs": [
				{
					"internalType": "uint256",
					"name": "_transNumber",
					"type": "uint256"
				}
			],
			"name": "getMatNumber",
			"outputs": [
				{
					"internalType": "uint256",
					"name": "",
					"type": "uint256"
				}
			],
			"stateMutability": "pure",
			"type": "function"
		},
		{
			"inputs": [
				{
					"internalType": "uint256",
					"name": "_ratio",
					"type": "uint256"
				},
				{
					"internalType": "uint256",
					"name": "_bounty",
					"type": "uint256"
				}
			],
			"name": "getPunish",
			"outputs": [
				{
					"internalType": "uint256",
					"name": "",
					"type": "uint256"
				}
			],
			"stateMutability": "pure",
			"type": "function"
		},
		{
			"inputs": [
				{
					"internalType": "uint256",
					"name": "_bounts",
					"type": "uint256"
				}
			],
			"name": "punishRatio",
			"outputs": [
				{
					"internalType": "uint256",
					"name": "",
					"type": "uint256"
				}
			],
			"stateMutability": "pure",
			"type": "function"
		}
	]
}